{
  "transactions": [
    {
      "hash": "0xf477a6e98a3e756261ff251187e1847b8cdae1e7f19f73947204a559908afb81",
      "transactionType": "CREATE",
      "contractName": "CctpBridge",
      "contractAddress": "0xb90a749785f769dbbf61953a6a9acfb4c36f0eab",
      "function": null,
      "arguments": [
        "0x13e00D9810d3C8Dc19A8C9A172fd9A8aC56e94e0",
        "0xa8CE1F3b7C71A9C577686c93c4e8B4924bB5C5cA",
        "0x3600000000000000000000000000000000000000",
        "0x8FE6B999Dc680CcFDD5Bf7EB0974218be2542DAA",
        "26"
      ],
      "transaction": {
        "from": "0x13e00d9810d3c8dc19a8c9a172fd9a8ac56e94e0",
        "gas": "0xd79cb",
        "value": "0x0",
        "input": "0x60e03461019f57601f610c2738819003918201601f19168301916001600160401b038311848410176101a35780849260a09460405283398101031261019f57610047816101b7565b610053602083016101b7565b91610060604082016101b7565b608061006e606084016101b7565b9201519263ffffffff8416840361019f576001600160a01b031693841561018c575f80546001600160a01b031981168717825560405196916001600160a01b03909116907f8be0079c531659141344cd1fd0a4f28419497f9722a3daafe3b4186f6b6457e09080a36001600160a01b03168015801561017b575b801561016a575b61015b576080526001600160a01b0390811660a052600180546001600160a01b0319169290911691909117905560c052610a5b90816101cc8239608051818181610331015261085b015260a051818181610393015261094b015260c0518181816102fb01526107a40152f35b63d92e233d60e01b5f5260045ffd5b506001600160a01b038316156100ef565b506001600160a01b038216156100e8565b631e4fbdf760e01b5f525f60045260245ffd5b5f80fd5b634e487b7160e01b5f52604160045260245ffd5b51906001600160a01b038216820361019f5756fe6080806040526004361015610012575f80fd5b5f905f3560e01c90816313e7c9d81461097a575080633e413bee14610936578063461178301461090e578063558a72971461088a57806361d027b314610846578063715018a6146107ef5780638da5cb5b146107c85780638ddb4a8914610788578063c833ee8214610278578063e5711e8b146101a3578063f2fde38b1461011d5763f586384f146100a2575f80fd5b3461011a57602036600319011261011a576100bb6109b3565b6100c36109ff565b6001600160a01b0316801561010b57600180546001600160a01b031916821790557f123828ad0ce6eace02a51b44ed3508e51e0b5350caa227853b6f94ca0ff8efc58280a280f35b63d92e233d60e01b8252600482fd5b80fd5b503461011a57602036600319011261011a576101376109b3565b61013f6109ff565b6001600160a01b0316801561018f5781546001600160a01b03198116821783556001600160a01b03167f8be0079c531659141344cd1fd0a4f28419497f9722a3daafe3b4186f6b6457e08380a380f35b631e4fbdf760e01b82526004829052602482fd5b503461011a57606036600319011261011a576101bd6109b3565b6024356001600160a01b0381169190829003610274576101db6109ff565b6001600160a01b0316908115801561026c575b61025d576040519063a9059cbb60e01b845260045260443560245260208360448180865af190600184511482161561023d575b501561022b575080f35b635274afe760e01b8252600452602490fd5b60018215166102555750813b15153d1516165f610221565b3d84823e3d90fd5b63d92e233d60e01b8352600483fd5b5080156101ee565b8280fd5b50346107225760c0366003190112610722576102926109b3565b6024356044359163ffffffff831680930361072257606435916084359163ffffffff83168093036107225760a4359384151591828603610722575f546001600160a01b031633141580610771575b610762576001600160a01b03169485156107535763ffffffff7f00000000000000000000000000000000000000000000000000000000000000001687146107445783156107355783821015610726577f00000000000000000000000000000000000000000000000000000000000000006001600160a01b0316803b15610722575f8091604460405180948193631de076bb60e21b83523060048401528a60248401525af1801561071757610702575b50877f00000000000000000000000000000000000000000000000000000000000000009160018060a01b036001541660405163095ea7b360e01b8452816004528760245260208460448180895af19060018551148216156106f3575b60405215610604575b5015610552575060018060a01b03600154166040516040810181811067ffffffffffffffff82111761053e57908a9392916040526020815260208101916b18d8dd1c0b599bdc9dd85c9960a21b8352803b1561053a578a856101248a82968e968e6040519a8b998a98899663779b432d60e01b885260048801526024870152604486015260018060a01b031660648501528560848501528c60a485015260c484015261010060e4840152518091816101048501528484015e8181018301849052601f01601f191681010301925af1801561052f57610510575b5050907f6b829f8f245d5f3d52cc947d8b1b0307a1978834eb3ab39041c635577b0a2cfe93608093925b604051938452602084015260408301526060820152a380f35b8161051e91959493956109c9565b61052b579091865f6104cd565b8680fd5b6040513d84823e3d90fd5b8480fd5b634e487b7160e01b8b52604160045260248bfd5b9060018060a01b036001541690813b1561027457829060e48a836040519586948593634701287760e11b85528c600486015260248501528d604485015260018060a01b031660648401528160848401528860a48401528b60c48401525af1801561052f576105e9575b5050907f6b829f8f245d5f3d52cc947d8b1b0307a1978834eb3ab39041c635577b0a2cfe93608093926104f7565b816105f791959493956109c9565b61052b579091865f6105bb565b90915060405163095ea7b360e01b8b52816004528a60245260208b60448180885af19060018c51148216156106d2575b604052156106b6576040519063095ea7b360e01b8b526004528560245260208a60448180875af19060018b5114821615610695575b604052156106795788905f6103f4565b635274afe760e01b89526001600160a01b038216600452602489fd5b9060018115166106ad57833b15153d15161690610669565b503d8a823e3d90fd5b635274afe760e01b8a526001600160a01b03831660045260248afd5b9060018115166106ea57843b15153d15161690610634565b503d8b823e3d90fd5b90853b15153d151616906103eb565b61070f9198505f906109c9565b5f965f61038f565b6040513d5f823e3d90fd5b5f80fd5b6358d620b360e01b5f5260045ffd5b63162908e360e11b5f5260045ffd5b632cebb6b160e21b5f5260045ffd5b63d92e233d60e01b5f5260045ffd5b6326b9cdff60e11b5f5260045ffd5b50335f52600260205260ff60405f205416156102e0565b34610722575f36600319011261072257602060405163ffffffff7f0000000000000000000000000000000000000000000000000000000000000000168152f35b34610722575f366003190112610722575f546040516001600160a01b039091168152602090f35b34610722575f366003190112610722576108076109ff565b5f80546001600160a01b0319811682556001600160a01b03167f8be0079c531659141344cd1fd0a4f28419497f9722a3daafe3b4186f6b6457e08280a3005b34610722575f366003190112610722576040517f00000000000000000000000000000000000000000000000000000000000000006001600160a01b03168152602090f35b34610722576040366003190112610722576108a36109b3565b60243590811515809203610722576108b96109ff565b6001600160a01b03169081156107535760207f1a594081ae893ab78e67d9b9e843547318164322d32c65369d78a96172d9dc8f91835f526002825260405f2060ff1981541660ff8316179055604051908152a2005b34610722575f366003190112610722576001546040516001600160a01b039091168152602090f35b34610722575f366003190112610722576040517f00000000000000000000000000000000000000000000000000000000000000006001600160a01b03168152602090f35b34610722576020366003190112610722576020906001600160a01b0361099e6109b3565b165f526002825260ff60405f20541615158152f35b600435906001600160a01b038216820361072257565b90601f8019910116810190811067ffffffffffffffff8211176109eb57604052565b634e487b7160e01b5f52604160045260245ffd5b5f546001600160a01b03163303610a1257565b63118cdaa760e01b5f523360045260245ffdfea264697066735822122053340044bbd9679b178894392d69faebe0e80719d74783f8bbf4aae764049b5c64736f6c634300081e003300000000000000000000000013e00d9810d3c8dc19a8c9a172fd9a8ac56e94e0000000000000000000000000a8ce1f3b7c71a9c577686c93c4e8b4924bb5c5ca00000000000000000000000036000000000000000000000000000000000000000000000000000000000000008fe6b999dc680ccfdd5bf7eb0974218be2542daa000000000000000000000000000000000000000000000000000000000000001a",
        "nonce": "0x14c",
        "chainId": "0x4cef52"
      },
      "additionalContracts": [],
      "isFixedGasLimit": false
    },
    {
      "hash": "0xc19c8aaa525249e14a12df84342038c7da4c91f99b5e4210530b27d5caa2643d",
      "transactionType": "CREATE",
      "contractName": "PayRun",
      "contractAddress": "0xa5a046e6dc6a10bfd54d88be7744680392feed79",
      "function": null,
      "arguments": [
        "0x13e00D9810d3C8Dc19A8C9A172fd9A8aC56e94e0",
        "0xa8CE1F3b7C71A9C577686c93c4e8B4924bB5C5cA",
        "0xB90A749785f769Dbbf61953A6A9ACFB4C36f0eab",
        "26"
      ],
      "transaction": {
        "from": "0x13e00d9810d3c8dc19a8c9a172fd9a8ac56e94e0",
        "gas": "0x151501",
        "value": "0x0",
        "input": "0x60e03461016157601f61134738819003918201601f19168301916001600160401b03831184841017610165578084926080946040528339810103126101615761004781610179565b61005360208301610179565b91606061006260408301610179565b9101519163ffffffff83168303610161576001600160a01b031692831561014e575f80546001600160a01b031981168617825560405195916001600160a01b03909116907f8be0079c531659141344cd1fd0a4f28419497f9722a3daafe3b4186f6b6457e09080a36001600160a01b03168015801561013d575b61012e576080526001600160a01b031660a05260c0526111b9908161018e82396080518181816102d901526108cf015260a0518181816103ac015261103d015260c05181818161026f01526106a80152f35b63d92e233d60e01b5f5260045ffd5b506001600160a01b038216156100dc565b631e4fbdf760e01b5f525f60045260245ffd5b5f80fd5b634e487b7160e01b5f52604160045260245ffd5b51906001600160a01b03821682036101615756fe610240806040526004361015610013575f80fd5b5f3560e01c90816305631d2f1461102b575080634a6bc6a614610a855780635c8277851461099757806360e68e42146108fe57806361d027b3146108ba578063715018a6146108635780638da5cb5b1461083c578063925ed1a114610789578063a5e90eee146106f6578063b67dfb5c146106cc578063c59e0bf11461068c578063f2fde38b14610607578063f3148ea7146101ec578063f3358a3a146101035763fdff9b4d146100c2575f80fd5b346100ff5760203660031901126100ff576001600160a01b036100e361109c565b165f526001602052602060ff60405f2054166040519015158152f35b5f80fd5b346100ff5760403660031901126100ff575f60a060405161012381611108565b82815282602082015282604082015282606082015282608082015201526004355f52600360205260c061015b60243560405f20611144565b506040519061016982611108565b63ffffffff60018060a01b03825416928381526001830154926020820193845282806002830154166040840190815260046003840154936060860194855201549560ff60a06080870196858a168852019760201c1615158752604051978852516020880152511660408601525160608501525116608083015251151560a0820152f35b346100ff5760203660031901126100ff5760043560018060a01b035f5416331415806105f0575b6105b1575f905f91815f52600260205260405f20916002830192835460ff811660058110156105dc5780156105cd576001148015906105c0575b6105b15761ff0019166101001784555f828152600360205260408120919490937f000000000000000000000000000000000000000000000000000000000000000063ffffffff169291905b82548610156104ee576102ab8684611144565b50956002870163ffffffff8154168681145f1461039e57505086546001880180549093916001600160a01b037f0000000000000000000000000000000000000000000000000000000000000000811692911690823b156100ff5760445f92836040519586948593631de076bb60e21b8552600485015260248401525af18015610393577f1f6f29234b6f56c6fa34e82543f01d6157ad53aa7569bdfbdeb938591edd53bb602061036960019787958d95610383575b505480966110ea565b9b878060a01b0390541694604051908152a45b0194610298565b5f61038d91611123565b5f610360565b6040513d5f823e3d90fd5b909192979960018060a01b037f000000000000000000000000000000000000000000000000000000000000000016928b60018060a01b0381541693600182019586546003840193600485549101978854843b156100ff575f9460ff869260c495604051998a988997636419f74160e11b8952600489015260248801526044870152606486015263ffffffff8116608486015260201c16151560a48401525af18015610393576104de575b50600183018093116104ca5785938a939d600160a01b600190039054169554925463ffffffff1691549054916040519384526020840152604083015263ffffffff8116606083015260201c60ff161515608082015260a07fa009159c402d186940b9c3006a9cd2b3c3317e5acd1776532cd453e4f1fb12e591a460019061037c565b634e487b7160e01b5f52601160045260245ffd5b5f6104e891611123565b8d610448565b87856040938983155f1461057257815460ff1916600317909155805467ffffffffffffffff60801b19164260801b67ffffffffffffffff60801b161781557f210c32e5058a8efbbdf0fc7ffb252116ec3696c2780374147051ecb4cd6f5209906020906001600160401b03905460801c168651908152a25b82519182526020820152f35b50600260ff198254161790557f2a9af938148bf21166996259bd72cf32819765c97e974cbe0bc1238f03c8adf3848051858152846020820152a2610566565b6307a92f1960e51b5f5260045ffd5b5060ff8160081c1661024d565b630aed6d8760e21b5f5260045ffd5b634e487b7160e01b5f52602160045260245ffd5b50335f52600160205260ff60405f20541615610213565b346100ff5760203660031901126100ff5761062061109c565b61062861115d565b6001600160a01b03168015610679575f80546001600160a01b03198116831782556001600160a01b0316907f8be0079c531659141344cd1fd0a4f28419497f9722a3daafe3b4186f6b6457e09080a3005b631e4fbdf760e01b5f525f60045260245ffd5b346100ff575f3660031901126100ff57602060405163ffffffff7f0000000000000000000000000000000000000000000000000000000000000000168152f35b346100ff5760203660031901126100ff576004355f526003602052602060405f2054604051908152f35b346100ff5760403660031901126100ff5761070f61109c565b602435908115158092036100ff5761072561115d565b6001600160a01b031690811561077a5760207fff83ce179bad4fbdb0e98074011487cde624295a52d8189d92d5d8b06c914eda91835f526001825260405f2060ff1981541660ff8316179055604051908152a2005b63d92e233d60e01b5f5260045ffd5b346100ff5760203660031901126100ff5760043560018060a01b035f541633141580610825575b6105b157805f526002602052600260405f200160ff81541660058110156105dc5780156105cd5760018114159081610819575b506105b157805460ff191660041790557fb02ec1904026315b757249fbeea8c35cdde11f2d93aa274f5c67ccb69d7d8f0a5f80a2005b600291501415836107e3565b50335f52600160205260ff60405f205416156107b0565b346100ff575f3660031901126100ff575f546040516001600160a01b039091168152602090f35b346100ff575f3660031901126100ff5761087b61115d565b5f80546001600160a01b0319811682556001600160a01b03167f8be0079c531659141344cd1fd0a4f28419497f9722a3daafe3b4186f6b6457e08280a3005b346100ff575f3660031901126100ff576040517f00000000000000000000000000000000000000000000000000000000000000006001600160a01b03168152602090f35b346100ff5760203660031901126100ff576004355f52600260205260405f208054600260018301549201549160ff83169063ffffffff604051936001600160401b03811685526001600160401b038160401c1660208601526001600160401b038160801c16604086015260c01c166060840152608083015260058110156105dc5760e09260ff9160a084015260081c16151560c0820152f35b346100ff5760203660031901126100ff5760043560018060a01b035f541633141580610a6e575b6105b157805f52600260205260405f206002810190815460ff811660058110156105dc5760021490811591610a5f575b506105b157815460ff1916600317909155805467ffffffffffffffff60801b19164260801b67ffffffffffffffff60801b161781557f210c32e5058a8efbbdf0fc7ffb252116ec3696c2780374147051ecb4cd6f5209906020906001600160401b03905460801c16604051908152a2005b60ff915060081c1615846109ee565b50335f52600160205260ff60405f205416156109be565b346100ff576101203660031901126100ff576024356102008190526001600160401b03811690036100ff576044356001600160401b03811681036100ff576064356001600160401b0381116100ff57610ae290369060040161106c565b61022052610120526084356001600160401b0381116100ff57610b0990369060040161106c565b6101c05260e05260a4356001600160401b0381116100ff57610b2f90369060040161106c565b6101805260a05260c4356001600160401b0381116100ff57610b5590369060040161106c565b6101605260c05260e4356001600160401b0381116100ff57610b7b90369060040161106c565b6101e05261010052610104356001600160401b0381116100ff57610ba390369060040161106c565b6101a052610140525f546001600160a01b031633141580611014575b6105b1575f6004355f52600260205260ff600260405f2001541660058110156105dc57611005576102205115610ff6576101c0516102205114801590610fe6575b8015610fd6575b8015610fc6575b8015610fb6575b610fa7575f6080525b6102205160805110610dcd576040519160e083018381106001600160401b03821117610db9576040526001600160401b036102005116835260208301926001600160401b0382168452600260408201915f83526060810163ffffffff610220511681526080820190868252610d116001600160401b0360a08501966001885260c086019a5f8c526004355f52876020528260405f209751166fffffffffffffffff00000000000000008854925160401b16916fffffffffffffffffffffffffffffffff191617178655511684908154906001600160401b0360801b9060801b16906001600160401b0360801b1916179055565b51825463ffffffff60c01b191660c09190911b63ffffffff60c01b1617825551600182015591519491019060058510156105dc5760209460ff8019845416911617825551151561ff0082549160081b169061ff0019161790556001600160401b0360405191816102005116835216838201528160408201527f368ee641a310c31d3df4a58a3dc7bef30403c983d7eae83e204635b530641f7e606060043592a2604051908152f35b634e487b7160e01b5f52604160045260245ffd5b60805161022051610120516001600160a01b0392610df392610dee926110b2565b6110d6565b161561077a57610e16610e0e6080516101c05160e0516110b2565b3580926110ea565b90610e2d610dee60805161022051610120516110b2565b610e47610e426080516101805160a0516110b2565b6110f7565b90610e5a6080516101605160c0516110b2565b3591610e72610e426080516101e051610100516110b2565b93610e866080516101a051610140516110b2565b35938415158095036100ff576004355f52600360205260405f2060405194610ead86611108565b60018060a01b031685526020850192835263ffffffff60408601941684526060850191825263ffffffff608086019716875260a08501958652805468010000000000000000811015610db957610f0891600182018155611144565b919091610f945763ffffffff809594600494829660018060a01b039051166bffffffffffffffffffffffff60a01b8654161785555160018501555116846002840191168519825416179055516003820155019351161663ffffffff1983541617825551151564ff0000000082549160201b169064ff000000001916179055600160805101608052610c1e565b634e487b7160e01b5f525f60045260245ffd5b631fec674760e31b5f5260045ffd5b506101a051610220511415610c15565b506101e051610220511415610c0e565b5061016051610220511415610c07565b5061018051610220511415610c00565b632aa818dd60e11b5f5260045ffd5b63018b7db160e61b5f5260045ffd5b50335f52600160205260ff60405f20541615610bbf565b346100ff575f3660031901126100ff577f00000000000000000000000000000000000000000000000000000000000000006001600160a01b03168152602090f35b9181601f840112156100ff578235916001600160401b0383116100ff576020808501948460051b0101116100ff57565b600435906001600160a01b03821682036100ff57565b91908110156110c25760051b0190565b634e487b7160e01b5f52603260045260245ffd5b356001600160a01b03811681036100ff5790565b919082018092116104ca57565b3563ffffffff811681036100ff5790565b60c081019081106001600160401b03821117610db957604052565b90601f801991011681019081106001600160401b03821117610db957604052565b80548210156110c2575f52600560205f20910201905f90565b5f546001600160a01b0316330361117057565b63118cdaa760e01b5f523360045260245ffdfea26469706673582212206ea0d9db00c49ef1089aad7109b55e528b9ef2a8c3dd8052f0e4c1feca5350fd64736f6c634300081e003300000000000000000000000013e00d9810d3c8dc19a8c9a172fd9a8ac56e94e0000000000000000000000000a8ce1f3b7c71a9c577686c93c4e8b4924bb5c5ca000000000000000000000000b90a749785f769dbbf61953a6a9acfb4c36f0eab000000000000000000000000000000000000000000000000000000000000001a",
        "nonce": "0x14d",
        "chainId": "0x4cef52"
      },
      "additionalContracts": [],
      "isFixedGasLimit": false
    },
    {
      "hash": "0xa51bc47abeaf87db99bc8c882c42b512cb2c5b4e6f22a0669b52194c89e892d8",
      "transactionType": "CALL",
      "contractName": null,
      "contractAddress": "0xa8ce1f3b7c71a9c577686c93c4e8b4924bb5c5ca",
      "function": "setPayoutExecutor(address,bool)",
      "arguments": [
        "0xa5A046e6Dc6A10bfd54d88BE7744680392FEed79",
        "true"
      ],
      "transaction": {
        "from": "0x13e00d9810d3c8dc19a8c9a172fd9a8ac56e94e0",
        "to": "0xa8ce1f3b7c71a9c577686c93c4e8b4924bb5c5ca",
        "gas": "0x1025a",
        "value": "0x0",
        "input": "0xd3921d9c000000000000000000000000a5a046e6dc6a10bfd54d88be7744680392feed790000000000000000000000000000000000000000000000000000000000000001",
        "nonce": "0x14e",
        "chainId": "0x4cef52"
      },
      "additionalContracts": [],
      "isFixedGasLimit": false
    },
    {
      "hash": "0x14f4c295e131aa94a84601cd13e8be13a0b2d1983326efd28ed898979a7e95e2",
      "transactionType": "CALL",
      "contractName": null,
      "contractAddress": "0xa8ce1f3b7c71a9c577686c93c4e8b4924bb5c5ca",
      "function": "setPayoutExecutor(address,bool)",
      "arguments": [
        "0xB90A749785f769Dbbf61953A6A9ACFB4C36f0eab",
        "true"
      ],
      "transaction": {
        "from": "0x13e00d9810d3c8dc19a8c9a172fd9a8ac56e94e0",
        "to": "0xa8ce1f3b7c71a9c577686c93c4e8b4924bb5c5ca",
        "gas": "0x1025a",
        "value": "0x0",
        "input": "0xd3921d9c000000000000000000000000b90a749785f769dbbf61953a6a9acfb4c36f0eab0000000000000000000000000000000000000000000000000000000000000001",
        "nonce": "0x14f",
        "chainId": "0x4cef52"
      },
      "additionalContracts": [],
      "isFixedGasLimit": false
    },
    {
      "hash": "0xa57d45f06a7531384d672c3c4e9eb26e320063e6b2a463ba1a9f22751db71212",
      "transactionType": "CALL",
      "contractName": "CctpBridge",
      "contractAddress": "0xb90a749785f769dbbf61953a6a9acfb4c36f0eab",
      "function": "setOperator(address,bool)",
      "arguments": [
        "0xa5A046e6Dc6A10bfd54d88BE7744680392FEed79",
        "true"
      ],
      "transaction": {
        "from": "0x13e00d9810d3c8dc19a8c9a172fd9a8ac56e94e0",
        "to": "0xb90a749785f769dbbf61953a6a9acfb4c36f0eab",
        "gas": "0x11072",
        "value": "0x0",
        "input": "0x558a7297000000000000000000000000a5a046e6dc6a10bfd54d88be7744680392feed790000000000000000000000000000000000000000000000000000000000000001",
        "nonce": "0x150",
        "chainId": "0x4cef52"
      },
      "additionalContracts": [],
      "isFixedGasLimit": false
    },
    {
      "hash": "0x8f16cb1d7cc5ae3537562aaf4a3445a3a7d87d0a43b712fd79c9d1839b1b9eb5",
      "transactionType": "CALL",
      "contractName": null,
      "contractAddress": "0xa8ce1f3b7c71a9c577686c93c4e8b4924bb5c5ca",
      "function": "setPayoutExecutor(address,bool)",
      "arguments": [
        "0x3eD6CC37Ff96A7134D19dec00EF1B8e4cFe7c28d",
        "false"
      ],
      "transaction": {
        "from": "0x13e00d9810d3c8dc19a8c9a172fd9a8ac56e94e0",
        "to": "0xa8ce1f3b7c71a9c577686c93c4e8b4924bb5c5ca",
        "gas": "0x8c21",
        "value": "0x0",
        "input": "0xd3921d9c0000000000000000000000003ed6cc37ff96a7134d19dec00ef1b8e4cfe7c28d0000000000000000000000000000000000000000000000000000000000000000",
        "nonce": "0x151",
        "chainId": "0x4cef52"
      },
      "additionalContracts": [],
      "isFixedGasLimit": false
    },
    {
      "hash": "0x0e2522676a221b84197ad01f9ef658a9b9a091192a47dd5089562e0cafcdc2f5",
      "transactionType": "CALL",
      "contractName": null,
      "contractAddress": "0xa8ce1f3b7c71a9c577686c93c4e8b4924bb5c5ca",
      "function": "setPayoutExecutor(address,bool)",
      "arguments": [
        "0x4fF59276875396999fde101bBa4D55E044F2BfaE",
        "false"
      ],
      "transaction": {
        "from": "0x13e00d9810d3c8dc19a8c9a172fd9a8ac56e94e0",
        "to": "0xa8ce1f3b7c71a9c577686c93c4e8b4924bb5c5ca",
        "gas": "0x8c21",
        "value": "0x0",
        "input": "0xd3921d9c0000000000000000000000004ff59276875396999fde101bba4d55e044f2bfae0000000000000000000000000000000000000000000000000000000000000000",
        "nonce": "0x152",
        "chainId": "0x4cef52"
      },
      "additionalContracts": [],
      "isFixedGasLimit": false
    }
  ],
  "receipts": [
    {
      "status": "0x1",
      "cumulativeGasUsed": "0x1dcf00",
      "logs": [
        {
          "address": "0xb90a749785f769dbbf61953a6a9acfb4c36f0eab",
          "topics": [
            "0x8be0079c531659141344cd1fd0a4f28419497f9722a3daafe3b4186f6b6457e0",
            "0x0000000000000000000000000000000000000000000000000000000000000000",
            "0x00000000000000000000000013e00d9810d3c8dc19a8c9a172fd9a8ac56e94e0"
          ],
          "data": "0x",
          "blockHash": "0xbb052ac1b771f7a5fd660eae0891050c34ee6c705872efef783c2ff159f3d0dd",
          "blockNumber": "0x1c1362d",
          "blockTimestamp": "0x69a32a96",
          "transactionHash": "0xf477a6e98a3e756261ff251187e1847b8cdae1e7f19f73947204a559908afb81",
          "transactionIndex": "0xa",
          "logIndex": "0x2d",
          "removed": false
        }
      ],
      "logsBloom": "0x00000000000000000000000000000000000000000000000000800000000000000040000000000000000000000000000400000000000000000000000000000000000000000000000000000000000000000001000000000000000000000000000000000000020000000000000000000800000000000000000000000000000000400000002000000000000000000000000000000000000000000000000000000000000000000000000000000000000000000000000000000000000000000000000000000000000008000000000000000000000000000000000000000000000020000000001000000000000000000000000000001000000000000000000000000000",
      "type": "0x2",
      "transactionHash": "0xf477a6e98a3e756261ff251187e1847b8cdae1e7f19f73947204a559908afb81",
      "transactionIndex": "0xa",
      "blockHash": "0xbb052ac1b771f7a5fd660eae0891050c34ee6c705872efef783c2ff159f3d0dd",
      "blockNumber": "0x1c1362d",
      "gasUsed": "0xa5db0",
      "effectiveGasPrice": "0x4a83282c0",
      "from": "0x13e00d9810d3c8dc19a8c9a172fd9a8ac56e94e0",
      "to": null,
      "contractAddress": "0xb90a749785f769dbbf61953a6a9acfb4c36f0eab"
    },
    {
      "status": "0x1",
      "cumulativeGasUsed": "0x2e068b",
      "logs": [
        {
          "address": "0xa5a046e6dc6a10bfd54d88be7744680392feed79",
          "topics": [
            "0x8be0079c531659141344cd1fd0a4f28419497f9722a3daafe3b4186f6b6457e0",
            "0x0000000000000000000000000000000000000000000000000000000000000000",
            "0x00000000000000000000000013e00d9810d3c8dc19a8c9a172fd9a8ac56e94e0"
          ],
          "data": "0x",
          "blockHash": "0xbb052ac1b771f7a5fd660eae0891050c34ee6c705872efef783c2ff159f3d0dd",
          "blockNumber": "0x1c1362d",
          "blockTimestamp": "0x69a32a96",
          "transactionHash": "0x8f16cb1d7cc5ae3537562aaf4a3445a3a7d87d0a43b712fd79c9d1839b1b9eb5",
          "transactionIndex": "0xb",
          "logIndex": "0x2e",
          "removed": false
        }
      ],
      "logsBloom": "0x00000000000000000000000000000000000000000000000000800000000000000000000000000000040000000000000400000000000000000000000000000000000000000000000000000000000000000001000000000000000000000000000000000000020000000000000000000a00000000000000000000000000000000400000000000000000000000000000000000000000000000000000000000000200000000000000000000000000000000000000000000000000000000000000000000000000000008000000000000000000000000000000000000000000000020000000001000000000000000000000000000000000000000000000000000000000",
      "type": "0x2",
      "transactionHash": "0x8f16cb1d7cc5ae3537562aaf4a3445a3a7d87d0a43b712fd79c9d1839b1b9eb5",
      "transactionIndex": "0xb",
      "blockHash": "0xbb052ac1b771f7a5fd660eae0891050c34ee6c705872efef783c2ff159f3d0dd",
      "blockNumber": "0x1c1362d",
      "gasUsed": "0x10378b",
      "effectiveGasPrice": "0x4a83282c0",
      "from": "0x13e00d9810d3c8dc19a8c9a172fd9a8ac56e94e0",
      "to": null,
      "contractAddress": "0xa5a046e6dc6a10bfd54d88be7744680392feed79"
    },
    {
      "status": "0x1",
      "cumulativeGasUsed": "0x2ec197",
      "logs": [
        {
          "address": "0xa8ce1f3b7c71a9c577686c93c4e8b4924bb5c5ca",
          "topics": [
            "0xd90b19cc7c3cbc73a9e26a9c40ed1fd674031463ba3a9595d7cc658e276aec29",
            "0x000000000000000000000000a5a046e6dc6a10bfd54d88be7744680392feed79"
          ],
          "data": "0x0000000000000000000000000000000000000000000000000000000000000001",
          "blockHash": "0xbb052ac1b771f7a5fd660eae0891050c34ee6c705872efef783c2ff159f3d0dd",
          "blockNumber": "0x1c1362d",
          "blockTimestamp": "0x69a32a96",
          "transactionHash": "0x14f4c295e131aa94a84601cd13e8be13a0b2d1983326efd28ed898979a7e95e2",
          "transactionIndex": "0xc",
          "logIndex": "0x2f",
          "removed": false
        }
      ],
      "logsBloom": "0x00000000000000804000000000000000000000000000000000000000000000000000000000000000000000000000000000000000000000000000000000000000000000000000000000000000000000000000000000000000000000000000000000000000000800000000000000000000000000000800000000000000000000001000000000000000000000000000040000000000000000000000000000080000000000800000000000000000000000000000000000000004000000000000000000000000000000000000000000000000000000000000000000000000000000000000000000000000000000000000000000000000000000000000000000000000",
      "type": "0x2",
      "transactionHash": "0x14f4c295e131aa94a84601cd13e8be13a0b2d1983326efd28ed898979a7e95e2",
      "transactionIndex": "0xc",
      "blockHash": "0xbb052ac1b771f7a5fd660eae0891050c34ee6c705872efef783c2ff159f3d0dd",
      "blockNumber": "0x1c1362d",
      "gasUsed": "0xbb0c",
      "effectiveGasPrice": "0x4a83282c0",
      "from": "0x13e00d9810d3c8dc19a8c9a172fd9a8ac56e94e0",
      "to": "0xa8ce1f3b7c71a9c577686c93c4e8b4924bb5c5ca",
      "contractAddress": null
    },
    {
      "status": "0x1",
      "cumulativeGasUsed": "0x2f7ca3",
      "logs": [
        {
          "address": "0xa8ce1f3b7c71a9c577686c93c4e8b4924bb5c5ca",
          "topics": [
            "0xd90b19cc7c3cbc73a9e26a9c40ed1fd674031463ba3a9595d7cc658e276aec29",
            "0x000000000000000000000000b90a749785f769dbbf61953a6a9acfb4c36f0eab"
          ],
          "data": "0x0000000000000000000000000000000000000000000000000000000000000001",
          "blockHash": "0xbb052ac1b771f7a5fd660eae0891050c34ee6c705872efef783c2ff159f3d0dd",
          "blockNumber": "0x1c1362d",
          "blockTimestamp": "0x69a32a96",
          "transactionHash": "0xc19c8aaa525249e14a12df84342038c7da4c91f99b5e4210530b27d5caa2643d",
          "transactionIndex": "0xd",
          "logIndex": "0x30",
          "removed": false
        }
      ],
      "logsBloom": "0x00000000000000804000000000000000000000000000000000000000000000000000000000000010000000000000000000000000000000000000000000000000000000000000000000000000000000000000000000000000000000000000000000000000000800000000000000000000000000000800000000000000000000000000000000000000000000000000040000000000000000000000000000080000000000000000000000000000000000000000000000000000000000000000000000000000000000000000000000000000000000000000000000000000000000010000000000000000000000000000000000000000000000000000080000000000",
      "type": "0x2",
      "transactionHash": "0xc19c8aaa525249e14a12df84342038c7da4c91f99b5e4210530b27d5caa2643d",
      "transactionIndex": "0xd",
      "blockHash": "0xbb052ac1b771f7a5fd660eae0891050c34ee6c705872efef783c2ff159f3d0dd",
      "blockNumber": "0x1c1362d",
      "gasUsed": "0xbb0c",
      "effectiveGasPrice": "0x4a83282c0",
      "from": "0x13e00d9810d3c8dc19a8c9a172fd9a8ac56e94e0",
      "to": "0xa8ce1f3b7c71a9c577686c93c4e8b4924bb5c5ca",
      "contractAddress": null
    },
    {
      "status": "0x1",
      "cumulativeGasUsed": "0x3036ed",
      "logs": [
        {
          "address": "0xb90a749785f769dbbf61953a6a9acfb4c36f0eab",
          "topics": [
            "0x1a594081ae893ab78e67d9b9e843547318164322d32c65369d78a96172d9dc8f",
            "0x000000000000000000000000a5a046e6dc6a10bfd54d88be7744680392feed79"
          ],
          "data": "0x0000000000000000000000000000000000000000000000000000000000000001",
          "blockHash": "0xbb052ac1b771f7a5fd660eae0891050c34ee6c705872efef783c2ff159f3d0dd",
          "blockNumber": "0x1c1362d",
          "blockTimestamp": "0x69a32a96",
          "transactionHash": "0xa57d45f06a7531384d672c3c4e9eb26e320063e6b2a463ba1a9f22751db71212",
          "transactionIndex": "0xe",
          "logIndex": "0x31",
          "removed": false
        }
      ],
      "logsBloom": "0x00000000000000000000000000000000000000000000000000000000000000000040000000000000000000000000000000000000000000000000000000000000000000000000000000000000000000000000000000000000000000000000000000000000000000000000000000000008000000000000000000000000000000001000002000000000000000000000000000000000000000000000000000000000000000800000000000000000000000000000000000000004000000000000008000000000000000000000000000000000000000000000000000000000000000000000000000000000000000000000000000001000000000000010000000000000",
      "type": "0x2",
      "transactionHash": "0xa57d45f06a7531384d672c3c4e9eb26e320063e6b2a463ba1a9f22751db71212",
      "transactionIndex": "0xe",
      "blockHash": "0xbb052ac1b771f7a5fd660eae0891050c34ee6c705872efef783c2ff159f3d0dd",
      "blockNumber": "0x1c1362d",
      "gasUsed": "0xba4a",
      "effectiveGasPrice": "0x4a83282c0",
      "from": "0x13e00d9810d3c8dc19a8c9a172fd9a8ac56e94e0",
      "to": "0xb90a749785f769dbbf61953a6a9acfb4c36f0eab",
      "contractAddress": null
    },
    {
      "status": "0x1",
      "cumulativeGasUsed": "0x309c61",
      "logs": [
        {
          "address": "0xa8ce1f3b7c71a9c577686c93c4e8b4924bb5c5ca",
          "topics": [
            "0xd90b19cc7c3cbc73a9e26a9c40ed1fd674031463ba3a9595d7cc658e276aec29",
            "0x0000000000000000000000003ed6cc37ff96a7134d19dec00ef1b8e4cfe7c28d"
          ],
          "data": "0x0000000000000000000000000000000000000000000000000000000000000000",
          "blockHash": "0xbb052ac1b771f7a5fd660eae0891050c34ee6c705872efef783c2ff159f3d0dd",
          "blockNumber": "0x1c1362d",
          "blockTimestamp": "0x69a32a96",
          "transactionHash": "0xa51bc47abeaf87db99bc8c882c42b512cb2c5b4e6f22a0669b52194c89e892d8",
          "transactionIndex": "0xf",
          "logIndex": "0x32",
          "removed": false
        }
      ],
      "logsBloom": "0x00000000000000804000000800000000000000000000000000000000000000000000000000000000000000000000000000000000000000000000000000000000000000000000000000000000000000000000000000000000000000000000000000000000000800000000000000004000002000000800000000000000000000000000000000000000000000000000040000000000000000000000000000080000000000000000000000000000000000000000000000000000000000000000000000000000000000000000000000000000000000000000000000000000000000000000000000000000000000000000000000000000000000000000000000000000",
      "type": "0x2",
      "transactionHash": "0xa51bc47abeaf87db99bc8c882c42b512cb2c5b4e6f22a0669b52194c89e892d8",
      "transactionIndex": "0xf",
      "blockHash": "0xbb052ac1b771f7a5fd660eae0891050c34ee6c705872efef783c2ff159f3d0dd",
      "blockNumber": "0x1c1362d",
      "gasUsed": "0x6574",
      "effectiveGasPrice": "0x4a83282c0",
      "from": "0x13e00d9810d3c8dc19a8c9a172fd9a8ac56e94e0",
      "to": "0xa8ce1f3b7c71a9c577686c93c4e8b4924bb5c5ca",
      "contractAddress": null
    },
    {
      "status": "0x1",
      "cumulativeGasUsed": "0x3101d5",
      "logs": [
        {
          "address": "0xa8ce1f3b7c71a9c577686c93c4e8b4924bb5c5ca",
          "topics": [
            "0xd90b19cc7c3cbc73a9e26a9c40ed1fd674031463ba3a9595d7cc658e276aec29",
            "0x0000000000000000000000004ff59276875396999fde101bba4d55e044f2bfae"
          ],
          "data": "0x0000000000000000000000000000000000000000000000000000000000000000",
          "blockHash": "0xbb052ac1b771f7a5fd660eae0891050c34ee6c705872efef783c2ff159f3d0dd",
          "blockNumber": "0x1c1362d",
          "blockTimestamp": "0x69a32a96",
          "transactionHash": "0x0e2522676a221b84197ad01f9ef658a9b9a091192a47dd5089562e0cafcdc2f5",
          "transactionIndex": "0x10",
          "logIndex": "0x33",
          "removed": false
        }
      ],
      "logsBloom": "0x00000000000000804000000000000000000000000000000000000000000000000000000000000000000000000000000000000000000000000000000000000000000000000000000000800000000000000000000000000000000000000000000000000000000800000000000000000000000000000800000000000000000000000000000000000000000000000000040000000000000000000000000000080000000000002000000000000000000000000000000000000000000000000000000000000000000000000000040000000000000000000000000000000000000000000000000000000000000000000000000000000000000000000000000000000000",
      "type": "0x2",
      "transactionHash": "0x0e2522676a221b84197ad01f9ef658a9b9a091192a47dd5089562e0cafcdc2f5",
      "transactionIndex": "0x10",
      "blockHash": "0xbb052ac1b771f7a5fd660eae0891050c34ee6c705872efef783c2ff159f3d0dd",
      "blockNumber": "0x1c1362d",
      "gasUsed": "0x6574",
      "effectiveGasPrice": "0x4a83282c0",
      "from": "0x13e00d9810d3c8dc19a8c9a172fd9a8ac56e94e0",
      "to": "0xa8ce1f3b7c71a9c577686c93c4e8b4924bb5c5ca",
      "contractAddress": null
    }
  ],
  "libraries": [],
  "pending": [],
  "returns": {
    "cctpBridge": {
      "internal_type": "contract CctpBridge",
      "value": "0xB90A749785f769Dbbf61953A6A9ACFB4C36f0eab"
    },
    "payRun": {
      "internal_type": "contract PayRun",
      "value": "0xa5A046e6Dc6A10bfd54d88BE7744680392FEed79"
    }
  },
  "timestamp": 1772300951828,
  "chain": 5042002,
  "commit": "428a1b3"
}